S01E0000535052494E54535F416972436F6E646974696F6E65722E73726563DA
S11300000C942A000C9447000C9447000C9447006D
S11300100C9447000C9447000C9447000C94470040
S11300200C9447000C9447000C9447000C94470030
S11300300C9447000C9447000C9447000C94470020
S11300400C9447000C9447000C9447000C94470010
S11300500C94470011241FBECFE5D8E0DEBFCDBF0E
S113006010E0A0E6B0E0EEECFCE002C005900D92DA
S1130070A83CB107D9F720E0A8ECB0E001C01D927C
S1130080AE3CB207E1F70E94CE020C9465060C94D4
S1130090000081E00E94E00180E790E00E9471028C
S11300A061E081E00E949E028FE790E00E9471026D
S11300B008950E941F020E9421010E9421040E94AF
S11300C007010E94AD020E944900089581E00E9448
S11300D0E00161E080E00E949E028CE890E00E94D2
S11300E071026EE080E00E949E028091C8009091AF
S11300F0C9000E94800261E081E00E949E028AE9B8
S113010090E00E9471020E941B018AE50E94120184
S113011041E060E083E00E946E0340E061E083E040
S11301200E946E032FEF89E698E1215080409040B1
S1130130E1F700C000000E944900089581E00E9498
S1130140E00161E080E00E949E028CE890E00E9461
S113015071026EE080E00E949E028091C80090913E
S1130160C9000E94800261E081E00E949E0288EA48
S113017090E00E9471020E941E0140E060E083E072
S11301800E946E0340E061E083E00E946E032FEF63
S113019089E698E1215080409040E1F700C00000DA
S11301A00E94490008958AEC90E00E94FF05809324
S11301B0CD0080E00E94B0029093C9008093C800F3
S11301C02091CD0030E02817390718F40E9466000A
S11301D008950E949E000895CF93DF93D0E00E947B
S11301E07201C82F8F3F51F08D3361F0ED2FF0E095
S11301F0E653FF4F80830E943202DF5FD33078F3EF
S1130200CD3311F40E94D300DF91CF91089541E0E2
S113021060E083E00E94E90241E061E083E00E9443
S1130220E9020895682F70E080E090E00E94F504F0
S11302300E943C0408950E944C0408950E945004B6
S1130240089541E060E082E00E94E90241E061E05B
S113025082E00E94E90241E062E082E00E94E90259
S113026041E063E082E00E94E90240E064E082E071
S11302700E94E90240E065E082E00E94E90240E079
S113028066E082E00E94E90240E067E082E00E94CA
S1130290E90241E060E082E00E946E0341E061E037
S11302A082E00E946E0341E062E082E00E946E03FD
S11302B041E063E082E00E946E0341E064E082E09A
S11302C00E946E0341E065E082E00E946E0341E01B
S11302D066E082E00E946E0341E067E082E00E94F3
S11302E06E0308953F924F925F926F927F928F9226
S11302F09F92AF92BF92CF92DF92EF92FF920F93B1
S11303001F93CF93DF930F2EF8E6CF2EF0E0DF2E6E
S1130310F02D0F2EF7EB8F2EF0E09F2EF02D0F2EE9
S1130320F0E74F2EF0E05F2EF02D33243A940F2E99
S1130330F8E6AF2EF0E0BF2EF02D360140E0F601D6
S1130340618180810E946E0300E610E07401E8017F
S1130350698188810E94F303811108C069818881C1
S11303600E94F3038823D1F3F70130800E5F1F4FFF
S1130370FFEFEF1AFF0A0A151B0549F741E0F301E5
S1130380618180810E946E03F2E0CF0ED11C84E073
S1130390880E911CC414D50481F6832DDF91CF916E
S11303A01F910F91FF90EF90DF90CF90BF90AF908F
S11303B09F908F907F906F905F904F903F900895A3
S11303C0C098C198EFECF7E03197F1F700C0000056
S11303D0C29AEFECF7E03197F1F700C0000098B350
S11303E09F70282F207F922B98BBEFECF7E031977A
S11303F0F1F700C00000C298EFECF7E03197F1F795
S113040000C00000C29AEFECF7E03197F1F700C0AA
S1130410000028B32F70F0E18F9FC0011124822BBC
S113042088BB8FEC97E00197F1F700C00000C298F9
S1130430EFECF7E03197F1F700C00000089587B3BF
S1130440876087BB87B3806F87BB82E00E94E0012F
S113045088E20E94E00181E00E94E0018CE00E94B9
S1130460E0010895C09AC198EFECF7E03197F1F7F5
S113047000C00000C29AEFECF7E03197F1F700C03A
S1130480000098B39F70282F207F922B98BBEFEC2D
S1130490F7E03197F1F700C00000C298EFECF7E005
S11304A03197F1F700C00000C29AEFECF7E0319702
S11304B0F1F700C0000028B32F70F0E18F9FC00156
S11304C01124822B88BB8FEC97E00197F1F700C0D1
S11304D00000C298EFECF7E03197F1F700C000009C
S11304E00895CF93DF93EC018881882331F021961E
S11304F00E94320289918111FBCFDF91CF9108953F
S1130500CF93DF93CDB7DEB760970FB6F894DEBF15
S11305100FBECDBF4AE050E0BE016F5F7F4F0E9427
S11305201D06CE0101960E94710260960FB6F894E2
S1130530DEBF0FBECDBFDF91CF910895882319F0A0
S1130540813031F008958FE7860F0E94E00108950D
S11305508FEB860F0E94E00108950E94D302089554
S11305600E94DC029C01A8E8B3E10E94F0059B0113
S1130570AC01012E1AE056954795379527951A95A3
S1130580D1F7102DADECBCEC0E94F0059695879543
S11305909695879596958795992708950E94590071
S11305A00E94EC00FDCF3E9A3F983D9886B186B9F3
S11305B033983598379A089597B1907E97B997B143
S11305C0892B87B9369A349BFECF349A84B195B17E
S11305D00895413009F040C08130A1F028F0823004
S11305E0F9F0833059F10895683008F076C02AB3E1
S11305F081E090E002C0880F991F6A95E2F7822B90
S11306008ABB0895683008F068C027B381E090E0A1
S113061002C0880F991F6A95E2F7822B87BB089561
S1130620683008F05AC024B381E090E002C0880F1B
S1130630991F6A95E2F7822B84BB0895683008F00D
S11306404CC021B381E090E002C0880F991F6A95E5
S1130650E2F7822B81BB089541113FC08130A1F0A4
S113066028F08230F9F0833059F108956830A8F504
S11306702AB381E090E002C0880F991F6A95E2F7DF
S1130680809582238ABB0895683038F527B381E0CA
S113069090E002C0880F991F6A95E2F78095822343
S11306A087BB08956830C8F424B381E090E002C0A9
S11306B0880F991F6A95E2F78095822384BB089579
S11306C0683058F421B381E090E002C0880F991F8C
S11306D06A95E2F78095822381BB0895413009F041
S11306E040C08130A1F028F08230F9F0833059F114
S11306F00895683008F076C02BB381E090E002C022
S1130700880F991F6A95E2F7822B8BBB0895683096
S113071008F068C028B381E090E002C0880F991FF8
S11307206A95E2F7822B88BB0895683008F05AC0B6
S113073025B381E090E002C0880F991F6A95E2F723
S1130740822B85BB0895683008F04CC022B381E049
S113075090E002C0880F991F6A95E2F7822B82BB52
S1130760089541113FC08130A1F028F08230F9F0A2
S1130770833059F108956830A8F52BB381E090E0F7
S113078002C0880F991F6A95E2F7809582238BBB7C
S11307900895683038F528B381E090E002C0880FEE
S11307A0991F6A95E2F78095822388BB0895683083
S11307B0C8F425B381E090E002C0880F991F6A95C0
S11307C0E2F78095822385BB0895683058F422B3FC
S11307D081E090E002C0880F991F6A95E2F7809546
S11307E0822382BB0895813079F028F08230A9F009
S11307F08330E1F024C089B390E002C095958795D9
S11308006A95E2F78170089586B390E002C09595E9
S113081087956A95E2F78170089583B390E002C0EA
S1130820959587956A95E2F78170089580B390E075
S113083002C0959587956A95E2F78170089580E0E6
S1130840089583B7806483BF83B7886083BF41E022
S113085063E081E00E94E90283B7806283BF83B7CB
S11308608F7E83BF8EB58E7F8EBD8EB58D7F8EBD00
S11308708EB58B7F8EBD089520E030E048EC52E4C5
S11308800E94540420E030E04FE753E40E948305C3
S11308900E94C6046CBF089583B7826083BF089525
S11308A083B7887F83BF08950E9468040C94490528
S11308B00E94420558F00E943B0540F029F45F3F36
S11308C029F00C94320551110C947D050C943805D3
S11308D00E945A0568F39923B1F3552391F3951BAC
S11308E0550BBB27AA2762177307840738F09F5F4D
S11308F05F4F220F331F441FAA1FA9F335D00E2EBA
S11309003AF0E0E832D091505040E695001CCAF726
S11309102BD0FE2F29D0660F771F881FBB1F2617E9
S113092037074807AB07B0E809F0BB0B802DBF01C0
S1130930FF2793585F4F3AF09E3F510578F00C948F
S113094032050C947D055F3FE4F3983ED4F386951D
S113095077956795B795F7959F5FC9F7880F911DB0
S11309609695879597F90895E1E0660F771F881F9C
S1130970BB1F621773078407BA0720F0621B730B4F
S1130980840BBA0BEE1F88F7E09508950E94620568
S113099088F09F5798F0B92F9927B751B0F0E1F03C
S11309A0660F771F881F991F1AF0BA95C9F714C0EC
S11309B0B13091F00E947C05B1E008950C947C055F
S11309C0672F782F8827B85F39F0B93FCCF3869525
S11309D077956795B395D9F73EF490958095709582
S11309E061957F4F8F4F9F4F0895E89409C097FBFF
S11309F03EF490958095709561957F4F8F4F9F4FF2
S1130A009923A9F0F92F96E9BB279395F695879535
S1130A1077956795B795F111F8CFFAF4BB0F11F4F8
S1130A2060FF1BC06F5F7F4F8F4F9F4F16C088239F
S1130A3011F096E911C0772321F09EE8872F762FD5
S1130A4005C0662371F096E8862F70E060E02AF016
S1130A509A95660F771F881FDAF7880F9695879502
S1130A6097F9089597F99F6780E870E060E008952A
S1130A709FEF80EC089500240A94161617061806B2
S1130A800906089500240A9412161306140605068E
S1130A900895092E0394000C11F4882352F0BB0F1F
S1130AA040F4BF2B11F460FF04C06F5F7F4F8F4F82
S1130AB09F4F089557FD9058440F551F59F05F3FBD
S1130AC071F04795880F97FB991F61F09F3F79F06C
S1130AD087950895121613061406551FF2CF4695EE
S1130AE0F1DF08C0161617061806991FF1CF869570
S1130AF07105610508940895E894BB276627772754
S1130B00CB0197F908950E9496050C9449050E941B
S1130B103B0538F00E94420520F0952311F00C9417
S1130B2032050C94380511240C947D050E945A0555
S1130B3070F3959FC1F3950F50E0551F629FF0012C
S1130B40729FBB27F00DB11D639FAA27F00DB11D45
S1130B50AA1F649F6627B00DA11D661F829F2227CE
S1130B60B00DA11D621F739FB00DA11D621F839F55
S1130B70A00D611D221F749F3327A00D611D231F2B
S1130B80849F600D211D822F762F6A2F11249F5779
S1130B9050409AF0F1F088234AF0EE0FFF1FBB1F7C
S1130BA0661F771F881F91505040A9F79E3F51053B
S1130BB080F00C9432050C947D055F3FE4F3983E7D
S1130BC0D4F3869577956795B795F795E7959F5FE5
S1130BD0C1F7FE2B880F911D9695879597F9089577
S1130BE0A29FB001B39FC001A39F700D811D11246A
S1130BF0911DB29F700D811D1124911D0895FC015A
S1130C0088279927E89421912032E9F3293010F0BC
S1130C102E30C8F32B3241F02D3239F4689404C0DD
S1130C200E943306820F911D219120532A30C0F374
S1130C301EF4909581959F4F08954532510520F4F7
S1130C40423010F00C942806FB011082CB01089569
S1130C50BB274A3031F4992322F4BDE29095819563
S1130C609F4F0C943C067AE0979F902D879F802D90
S1130C70910D11240895BB27FB015527AA27880F3E
S1130C80991FAA1FA41710F0A41B83955051B9F7FC
S1130C90A05DAA3308F0A95DA193009779F7B1117B
S1130CA0B1931192CB010C945506DC01FC01672F22
S1130CB071917723E1F7329704C07C916D9370832F
S1110CC06291AE17BF07C8F30895F894FFCFF2
S1130CCE02040205020602070200020102020203E6
S1130CDE504C6561736520536574205468650054E7
S1130CEE656D70657261747572653A0043757272E2
S1130CFE656E742074656D703A0046616E2074756D
S1130D0E726E6564206F6E0046616E207475726E2D
S1130D1E6564206F666600373431433835323039B6
S10B0D2E36333D2F2A2D2B0062
S9030000FC
